{
  "_format": "hh3-artifact-1",
  "contractName": "SubscriptionManager",
  "sourceName": "contracts/SubscriptionManager.sol",
  "abi": [
    {
      "inputs": [
        {
          "internalType": "address",
          "name": "_treasury",
          "type": "address"
        }
      ],
      "stateMutability": "nonpayable",
      "type": "constructor"
    },
    {
      "inputs": [],
      "name": "EnforcedPause",
      "type": "error"
    },
    {
      "inputs": [],
      "name": "ExpectedPause",
      "type": "error"
    },
    {
      "inputs": [
        {
          "internalType": "address",
          "name": "owner",
          "type": "address"
        }
      ],
      "name": "OwnableInvalidOwner",
      "type": "error"
    },
    {
      "inputs": [
        {
          "internalType": "address",
          "name": "account",
          "type": "address"
        }
      ],
      "name": "OwnableUnauthorizedAccount",
      "type": "error"
    },
    {
      "inputs": [],
      "name": "ReentrancyGuardReentrantCall",
      "type": "error"
    },
    {
      "inputs": [
        {
          "internalType": "address",
          "name": "token",
          "type": "address"
        }
      ],
      "name": "SafeERC20FailedOperation",
      "type": "error"
    },
    {
      "anonymous": false,
      "inputs": [
        {
          "indexed": true,
          "internalType": "address",
          "name": "previousOwner",
          "type": "address"
        },
        {
          "indexed": true,
          "internalType": "address",
          "name": "newOwner",
          "type": "address"
        }
      ],
      "name": "OwnershipTransferred",
      "type": "event"
    },
    {
      "anonymous": false,
      "inputs": [
        {
          "indexed": false,
          "internalType": "address",
          "name": "account",
          "type": "address"
        }
      ],
      "name": "Paused",
      "type": "event"
    },
    {
      "anonymous": false,
      "inputs": [
        {
          "indexed": true,
          "internalType": "uint256",
          "name": "planId",
          "type": "uint256"
        },
        {
          "indexed": false,
          "internalType": "string",
          "name": "name",
          "type": "string"
        },
        {
          "indexed": false,
          "internalType": "uint256",
          "name": "priceUsd",
          "type": "uint256"
        },
        {
          "indexed": false,
          "internalType": "uint256",
          "name": "duration",
          "type": "uint256"
        }
      ],
      "name": "PlanCreated",
      "type": "event"
    },
    {
      "anonymous": false,
      "inputs": [
        {
          "indexed": true,
          "internalType": "uint256",
          "name": "planId",
          "type": "uint256"
        },
        {
          "indexed": false,
          "internalType": "string",
          "name": "name",
          "type": "string"
        },
        {
          "indexed": false,
          "internalType": "uint256",
          "name": "priceUsd",
          "type": "uint256"
        },
        {
          "indexed": false,
          "internalType": "uint256",
          "name": "duration",
          "type": "uint256"
        },
        {
          "indexed": false,
          "internalType": "bool",
          "name": "active",
          "type": "bool"
        }
      ],
      "name": "PlanUpdated",
      "type": "event"
    },
    {
      "anonymous": false,
      "inputs": [
        {
          "indexed": true,
          "internalType": "address",
          "name": "payer",
          "type": "address"
        },
        {
          "indexed": true,
          "internalType": "address",
          "name": "user",
          "type": "address"
        },
        {
          "indexed": true,
          "internalType": "uint256",
          "name": "planId",
          "type": "uint256"
        },
        {
          "indexed": false,
          "internalType": "address",
          "name": "token",
          "type": "address"
        },
        {
          "indexed": false,
          "internalType": "uint256",
          "name": "tokenAmount",
          "type": "uint256"
        },
        {
          "indexed": false,
          "internalType": "bytes32",
          "name": "invoiceId",
          "type": "bytes32"
        },
        {
          "indexed": false,
          "internalType": "uint256",
          "name": "expiresAt",
          "type": "uint256"
        }
      ],
      "name": "SubscriptionPaid",
      "type": "event"
    },
    {
      "anonymous": false,
      "inputs": [
        {
          "indexed": false,
          "internalType": "address",
          "name": "token",
          "type": "address"
        },
        {
          "indexed": false,
          "internalType": "bool",
          "name": "accepted",
          "type": "bool"
        },
        {
          "indexed": false,
          "internalType": "address",
          "name": "priceFeed",
          "type": "address"
        }
      ],
      "name": "TokenAccepted",
      "type": "event"
    },
    {
      "anonymous": false,
      "inputs": [
        {
          "indexed": true,
          "internalType": "address",
          "name": "newTreasury",
          "type": "address"
        }
      ],
      "name": "TreasuryUpdated",
      "type": "event"
    },
    {
      "anonymous": false,
      "inputs": [
        {
          "indexed": false,
          "internalType": "address",
          "name": "account",
          "type": "address"
        }
      ],
      "name": "Unpaused",
      "type": "event"
    },
    {
      "inputs": [
        {
          "internalType": "address",
          "name": "",
          "type": "address"
        }
      ],
      "name": "acceptedToken",
      "outputs": [
        {
          "internalType": "bool",
          "name": "",
          "type": "bool"
        }
      ],
      "stateMutability": "view",
      "type": "function"
    },
    {
      "inputs": [
        {
          "internalType": "uint256",
          "name": "planId",
          "type": "uint256"
        }
      ],
      "name": "claimFreePlan",
      "outputs": [],
      "stateMutability": "nonpayable",
      "type": "function"
    },
    {
      "inputs": [
        {
          "internalType": "uint256",
          "name": "planId",
          "type": "uint256"
        },
        {
          "internalType": "string",
          "name": "name",
          "type": "string"
        },
        {
          "internalType": "uint256",
          "name": "priceUsd",
          "type": "uint256"
        },
        {
          "internalType": "uint256",
          "name": "duration",
          "type": "uint256"
        }
      ],
      "name": "createPlan",
      "outputs": [],
      "stateMutability": "nonpayable",
      "type": "function"
    },
    {
      "inputs": [
        {
          "internalType": "address",
          "name": "",
          "type": "address"
        },
        {
          "internalType": "uint256",
          "name": "",
          "type": "uint256"
        }
      ],
      "name": "expiresAt",
      "outputs": [
        {
          "internalType": "uint256",
          "name": "",
          "type": "uint256"
        }
      ],
      "stateMutability": "view",
      "type": "function"
    },
    {
      "inputs": [
        {
          "internalType": "uint256",
          "name": "planId",
          "type": "uint256"
        },
        {
          "internalType": "address",
          "name": "token",
          "type": "address"
        }
      ],
      "name": "getTokenAmountForPlan",
      "outputs": [
        {
          "internalType": "uint256",
          "name": "",
          "type": "uint256"
        }
      ],
      "stateMutability": "view",
      "type": "function"
    },
    {
      "inputs": [
        {
          "internalType": "address",
          "name": "user",
          "type": "address"
        },
        {
          "internalType": "uint256",
          "name": "planId",
          "type": "uint256"
        }
      ],
      "name": "hasActiveSubscription",
      "outputs": [
        {
          "internalType": "bool",
          "name": "",
          "type": "bool"
        }
      ],
      "stateMutability": "view",
      "type": "function"
    },
    {
      "inputs": [
        {
          "internalType": "uint256",
          "name": "planId",
          "type": "uint256"
        }
      ],
      "name": "isActive",
      "outputs": [
        {
          "internalType": "bool",
          "name": "",
          "type": "bool"
        }
      ],
      "stateMutability": "view",
      "type": "function"
    },
    {
      "inputs": [],
      "name": "owner",
      "outputs": [
        {
          "internalType": "address",
          "name": "",
          "type": "address"
        }
      ],
      "stateMutability": "view",
      "type": "function"
    },
    {
      "inputs": [],
      "name": "pause",
      "outputs": [],
      "stateMutability": "nonpayable",
      "type": "function"
    },
    {
      "inputs": [],
      "name": "paused",
      "outputs": [
        {
          "internalType": "bool",
          "name": "",
          "type": "bool"
        }
      ],
      "stateMutability": "view",
      "type": "function"
    },
    {
      "inputs": [
        {
          "internalType": "address",
          "name": "user",
          "type": "address"
        },
        {
          "internalType": "uint256",
          "name": "planId",
          "type": "uint256"
        },
        {
          "internalType": "bytes32",
          "name": "invoiceId",
          "type": "bytes32"
        },
        {
          "internalType": "address",
          "name": "token",
          "type": "address"
        },
        {
          "internalType": "uint256",
          "name": "maxTokenAmount",
          "type": "uint256"
        }
      ],
      "name": "payWithERC20",
      "outputs": [],
      "stateMutability": "nonpayable",
      "type": "function"
    },
    {
      "inputs": [
        {
          "internalType": "address",
          "name": "user",
          "type": "address"
        },
        {
          "internalType": "uint256",
          "name": "planId",
          "type": "uint256"
        },
        {
          "internalType": "bytes32",
          "name": "invoiceId",
          "type": "bytes32"
        }
      ],
      "name": "payWithNative",
      "outputs": [],
      "stateMutability": "payable",
      "type": "function"
    },
    {
      "inputs": [
        {
          "internalType": "uint256",
          "name": "",
          "type": "uint256"
        }
      ],
      "name": "plans",
      "outputs": [
        {
          "internalType": "string",
          "name": "name",
          "type": "string"
        },
        {
          "internalType": "uint256",
          "name": "priceUsd",
          "type": "uint256"
        },
        {
          "internalType": "uint256",
          "name": "duration",
          "type": "uint256"
        },
        {
          "internalType": "bool",
          "name": "active",
          "type": "bool"
        }
      ],
      "stateMutability": "view",
      "type": "function"
    },
    {
      "inputs": [],
      "name": "renounceOwnership",
      "outputs": [],
      "stateMutability": "nonpayable",
      "type": "function"
    },
    {
      "inputs": [
        {
          "internalType": "address",
          "name": "token",
          "type": "address"
        },
        {
          "internalType": "bool",
          "name": "accept",
          "type": "bool"
        },
        {
          "internalType": "address",
          "name": "priceFeed",
          "type": "address"
        }
      ],
      "name": "setAcceptedToken",
      "outputs": [],
      "stateMutability": "nonpayable",
      "type": "function"
    },
    {
      "inputs": [
        {
          "internalType": "address",
          "name": "t",
          "type": "address"
        }
      ],
      "name": "setTreasury",
      "outputs": [],
      "stateMutability": "nonpayable",
      "type": "function"
    },
    {
      "inputs": [
        {
          "internalType": "uint8",
          "name": "d",
          "type": "uint8"
        }
      ],
      "name": "setUsdDecimals",
      "outputs": [],
      "stateMutability": "nonpayable",
      "type": "function"
    },
    {
      "inputs": [
        {
          "internalType": "address",
          "name": "",
          "type": "address"
        }
      ],
      "name": "tokenPriceFeed",
      "outputs": [
        {
          "internalType": "address",
          "name": "",
          "type": "address"
        }
      ],
      "stateMutability": "view",
      "type": "function"
    },
    {
      "inputs": [
        {
          "internalType": "address",
          "name": "newOwner",
          "type": "address"
        }
      ],
      "name": "transferOwnership",
      "outputs": [],
      "stateMutability": "nonpayable",
      "type": "function"
    },
    {
      "inputs": [],
      "name": "treasury",
      "outputs": [
        {
          "internalType": "address",
          "name": "",
          "type": "address"
        }
      ],
      "stateMutability": "view",
      "type": "function"
    },
    {
      "inputs": [],
      "name": "unpause",
      "outputs": [],
      "stateMutability": "nonpayable",
      "type": "function"
    },
    {
      "inputs": [
        {
          "internalType": "uint256",
          "name": "planId",
          "type": "uint256"
        },
        {
          "internalType": "string",
          "name": "name",
          "type": "string"
        },
        {
          "internalType": "uint256",
          "name": "priceUsd",
          "type": "uint256"
        },
        {
          "internalType": "uint256",
          "name": "duration",
          "type": "uint256"
        },
        {
          "internalType": "bool",
          "name": "active",
          "type": "bool"
        }
      ],
      "name": "updatePlan",
      "outputs": [],
      "stateMutability": "nonpayable",
      "type": "function"
    },
    {
      "inputs": [],
      "name": "usdDecimals",
      "outputs": [
        {
          "internalType": "uint8",
          "name": "",
          "type": "uint8"
        }
      ],
      "stateMutability": "view",
      "type": "function"
    },
    {
      "inputs": [
        {
          "internalType": "address",
          "name": "token",
          "type": "address"
        },
        {
          "internalType": "uint256",
          "name": "amount",
          "type": "uint256"
        },
        {
          "internalType": "address",
          "name": "to",
          "type": "address"
        }
      ],
      "name": "withdrawERC20",
      "outputs": [],
      "stateMutability": "nonpayable",
      "type": "function"
    },
    {
      "inputs": [
        {
          "internalType": "uint256",
          "name": "amount",
          "type": "uint256"
        },
        {
          "internalType": "address",
          "name": "to",
          "type": "address"
        }
      ],
      "name": "withdrawNative",
      "outputs": [],
      "stateMutability": "nonpayable",
      "type": "function"
    },
    {
      "stateMutability": "payable",
      "type": "receive"
    }
  ],
  "bytecode": "0x60806040526002805461ff00191661080017905534801561001e575f5ffd5b5060405161228e38038061228e83398101604081905261003d9161013b565b338061006357604051631e4fbdf760e01b81525f60048201526024015b60405180910390fd5b61006c816100ec565b50600180556001600160a01b0381166100c75760405162461bcd60e51b815260206004820152601760248201527f74726561737572792063616e6e6f74206265207a65726f000000000000000000604482015260640161005a565b600780546001600160a01b0319166001600160a01b0392909216919091179055610168565b5f80546001600160a01b038381166001600160a01b0319831681178455604051919092169283917f8be0079c531659141344cd1fd0a4f28419497f9722a3daafe3b4186f6b6457e09190a35050565b5f6020828403121561014b575f5ffd5b81516001600160a01b0381168114610161575f5ffd5b9392505050565b612119806101755f395ff3fe608060405260043610610164575f3560e01c80638456cb59116100cd578063b8ca8dd811610087578063daf77a7911610062578063daf77a7914610493578063ddf9e5bd146104b2578063f0f44260146104d1578063f2fde38b146104f0575f5ffd5b8063b8ca8dd814610436578063d092660c14610455578063daeef9e014610474575f5ffd5b80638456cb59146103405780638da5cb5b146103545780639878cbb314610370578063aebe54f2146103a4578063b1606188146103c3578063b162061614610407575f5ffd5b80635c975abb1161011e5780635c975abb1461025d5780635fc3ea0b1461027457806361d027b31461029357806366a4b6c0146102ca578063715018a6146102fa57806382afd23b1461030e575f5ffd5b806315d61f691461016f5780631bc35b71146101905780632aee7939146101a3578063300e616b146101c25780633f4ba83a1461020b57806355f5e7de1461021f575f5ffd5b3661016b57005b5f5ffd5b34801561017a575f5ffd5b5061018e610189366004611a02565b61050f565b005b61018e61019e366004611a76565b61067a565b3480156101ae575f5ffd5b5061018e6101bd366004611ab5565b610990565b3480156101cd575f5ffd5b506101f86101dc366004611af5565b600460209081525f928352604080842090915290825290205481565b6040519081526020015b60405180910390f35b348015610216575f5ffd5b5061018e610a22565b34801561022a575f5ffd5b5061024d610239366004611b1d565b60066020525f908152604090205460ff1681565b6040519015158152602001610202565b348015610268575f5ffd5b5060025460ff1661024d565b34801561027f575f5ffd5b5061018e61028e366004611b36565b610a34565b34801561029e575f5ffd5b506007546102b2906001600160a01b031681565b6040516001600160a01b039091168152602001610202565b3480156102d5575f5ffd5b506002546102e890610100900460ff1681565b60405160ff9091168152602001610202565b348015610305575f5ffd5b5061018e610a50565b348015610319575f5ffd5b5061024d610328366004611b66565b5f908152600360208190526040909120015460ff1690565b34801561034b575f5ffd5b5061018e610a61565b34801561035f575f5ffd5b505f546001600160a01b03166102b2565b34801561037b575f5ffd5b506102b261038a366004611b1d565b60056020525f90815260409020546001600160a01b031681565b3480156103af575f5ffd5b506101f86103be366004611b7d565b610a71565b3480156103ce575f5ffd5b5061024d6103dd366004611af5565b6001600160a01b03919091165f908152600460209081526040808320938352929052205442111590565b348015610412575f5ffd5b50610426610421366004611b66565b610b99565b6040516102029493929190611ba7565b348015610441575f5ffd5b5061018e610450366004611b7d565b610c4b565b348015610460575f5ffd5b5061018e61046f366004611c01565b610ceb565b34801561047f575f5ffd5b5061018e61048e366004611b66565b610d0f565b34801561049e575f5ffd5b5061018e6104ad366004611c1c565b610f1d565b3480156104bd575f5ffd5b5061018e6104cc366004611c66565b611170565b3480156104dc575f5ffd5b5061018e6104eb366004611b1d565b611332565b3480156104fb575f5ffd5b5061018e61050a366004611b1d565b6113c8565b610517611402565b5f81116105585760405162461bcd60e51b815260206004820152600a60248201526906475726174696f6e3d360b41b60448201526064015b60405180910390fd5b826105925760405162461bcd60e51b815260206004820152600a6024820152696e616d6520656d70747960b01b604482015260640161054f565b604051806080016040528085858080601f0160208091040260200160405190810160405280939291908181526020018383808284375f9201829052509385525050506020808301869052604080840186905260016060909401939093528882526003905220815181906106059082611d60565b506020820151600182015560408083015160028301556060909201516003909101805460ff19169115159190911790555185907f9e577f4ac885b769646db304f554e3503ca6b65d2bf0dc1aab2d40f42dca44d59061066b908790879087908790611e43565b60405180910390a25050505050565b61068261142e565b61068a611458565b5f828152600360205260408082208151608081019092528054829082906106b090611ce4565b80601f01602080910402602001604051908101604052809291908181526020018280546106dc90611ce4565b80156107275780601f106106fe57610100808354040283529160200191610727565b820191905f5260205f20905b81548152906001019060200180831161070a57829003601f168201915b5050509183525050600182015460208201526002820154604082015260039091015460ff1615156060918201528101519091506107765760405162461bcd60e51b815260040161054f90611e69565b5f5f90505f61078983602001518361147c565b9050803410156107db5760405162461bcd60e51b815260206004820152601860248201527f696e73756666696369656e74206e61746976652073656e740000000000000000604482015260640161054f565b6007546040515f916001600160a01b03169083908381818185875af1925050503d805f8114610825576040519150601f19603f3d011682016040523d82523d5f602084013e61082a565b606091505b505090508061086d5760405162461bcd60e51b815260206004820152600f60248201526e1d1c985b9cd9995c8819985a5b1959608a1b604482015260640161054f565b8134111561090b575f6108808334611ea6565b6040519091505f90339083908381818185875af1925050503d805f81146108c2576040519150601f19603f3d011682016040523d82523d5f602084013e6108c7565b606091505b50509050806109085760405162461bcd60e51b815260206004820152600d60248201526c1c99599d5b990819985a5b1959609a1b604482015260640161054f565b50505b61091a8787866040015161148e565b6001600160a01b0387165f8181526004602090815260408083208a845290915280822054905189939233927f675d08f5e899ec990f33e465d40f3b0b622a2540a8118bf5a63861b829c7fbbc92610976929189918d9190611eb9565b60405180910390a45050505061098b60018055565b505050565b610998611402565b6001600160a01b038381165f818152600660209081526040808320805460ff1916881515908117909155600583529281902080546001600160a01b03191695871695861790558051938452908301919091528101919091527fe69ca4015a6dad8479ecaf1de86c4372f3bf512d5bb7ce8502dc3f4388eeae889060600160405180910390a1505050565b610a2a611402565b610a326114fb565b565b610a3c611402565b61098b6001600160a01b038416828461154d565b610a58611402565b610a325f6115ac565b610a69611402565b610a326115fb565b5f8281526003602052604080822081516080810190925280548392919082908290610a9b90611ce4565b80601f0160208091040260200160405190810160405280929190818152602001828054610ac790611ce4565b8015610b125780601f10610ae957610100808354040283529160200191610b12565b820191905f5260205f20905b815481529060010190602001808311610af557829003601f168201915b5050509183525050600182015460208201526002820154604082015260039091015460ff161515606091820152810151909150610b815760405162461bcd60e51b815260206004820152600d60248201526c706c616e20696e61637469766560981b604482015260640161054f565b610b8f816020015184611638565b9150505b92915050565b60036020525f9081526040902080548190610bb390611ce4565b80601f0160208091040260200160405190810160405280929190818152602001828054610bdf90611ce4565b8015610c2a5780601f10610c0157610100808354040283529160200191610c2a565b820191905f5260205f20905b815481529060010190602001808311610c0d57829003601f168201915b50505050600183015460028401546003909401549293909290915060ff1684565b610c53611402565b5f816001600160a01b0316836040515f6040518083038185875af1925050503d805f8114610c9c576040519150601f19603f3d011682016040523d82523d5f602084013e610ca1565b606091505b505090508061098b5760405162461bcd60e51b81526020600482015260166024820152751b985d1a5d99481dda5d1a191c985dc819985a5b195960521b604482015260640161054f565b610cf3611402565b6002805460ff9092166101000261ff0019909216919091179055565b610d17611458565b610d1f61142e565b5f81815260036020526040808220815160808101909252805482908290610d4590611ce4565b80601f0160208091040260200160405190810160405280929190818152602001828054610d7190611ce4565b8015610dbc5780601f10610d9357610100808354040283529160200191610dbc565b820191905f5260205f20905b815481529060010190602001808311610d9f57829003601f168201915b5050509183525050600182015460208201526002820154604082015260039091015460ff161515606091820152810151909150610e0b5760405162461bcd60e51b815260040161054f90611e69565b602081015115610e4d5760405162461bcd60e51b815260206004820152600d60248201526c706c616e206e6f74206672656560981b604482015260640161054f565b335f90815260046020908152604080832085845290915290205415610ea65760405162461bcd60e51b815260206004820152600f60248201526e185b1c9958591e4818db185a5b5959608a1b604482015260640161054f565b610eb53383836040015161148e565b335f81815260046020908152604080832086845290915280822054905185939283927f675d08f5e899ec990f33e465d40f3b0b622a2540a8118bf5a63861b829c7fbbc92610f0892918291829190611eb9565b60405180910390a450610f1a60018055565b50565b610f2561142e565b610f2d611458565b6001600160a01b0382165f9081526006602052604090205460ff16610f895760405162461bcd60e51b81526020600482015260126024820152711d1bdad95b881b9bdd081858d8d95c1d195960721b604482015260640161054f565b5f84815260036020526040808220815160808101909252805482908290610faf90611ce4565b80601f0160208091040260200160405190810160405280929190818152602001828054610fdb90611ce4565b80156110265780601f10610ffd57610100808354040283529160200191611026565b820191905f5260205f20905b81548152906001019060200180831161100957829003601f168201915b5050509183525050600182015460208201526002820154604082015260039091015460ff1615156060918201528101519091506110755760405162461bcd60e51b815260040161054f90611e69565b5f61108482602001518561147c565b905082156110cd57828111156110cd5760405162461bcd60e51b815260206004820152600e60248201526d707269636520736c69707061676560901b604482015260640161054f565b6007546110e9906001600160a01b03868116913391168461186c565b6110f88787846040015161148e565b6001600160a01b0387165f8181526004602090815260408083208a84529091529081902054905188929133917f675d08f5e899ec990f33e465d40f3b0b622a2540a8118bf5a63861b829c7fbbc91611156918a9188918d9190611eb9565b60405180910390a4505061116960018055565b5050505050565b611178611402565b5f868152600360205260408120805461119090611ce4565b9050116111d05760405162461bcd60e51b815260206004820152600e60248201526d1c1b185b881b9bdd08199bdd5b9960921b604482015260640161054f565b5f821161120c5760405162461bcd60e51b815260206004820152600a60248201526906475726174696f6e3d360b41b604482015260640161054f565b836112465760405162461bcd60e51b815260206004820152600a6024820152696e616d6520656d70747960b01b604482015260640161054f565b604051806080016040528086868080601f0160208091040260200160405190810160405280939291908181526020018383808284375f920182905250938552505050602080830187905260408084018790528515156060909401939093528982526003905220815181906112ba9082611d60565b506020820151600182015560408083015160028301556060909201516003909101805460ff19169115159190911790555186907f0dc43a11dfd77be3d260c9bf777b34528caaaba3ee2300e6d44e02713e45cad2906113229088908890889088908890611edf565b60405180910390a2505050505050565b61133a611402565b6001600160a01b03811661137f5760405162461bcd60e51b815260206004820152600c60248201526b7a65726f206164647265737360a01b604482015260640161054f565b600780546001600160a01b0319166001600160a01b0383169081179091556040517f7dae230f18360d76a040c81f050aa14eb9d6dc7901b20fc5d855e2a20fe814d1905f90a250565b6113d0611402565b6001600160a01b0381166113f957604051631e4fbdf760e01b81525f600482015260240161054f565b610f1a816115ac565b5f546001600160a01b03163314610a325760405163118cdaa760e01b815233600482015260240161054f565b60026001540361145157604051633ee5aeb560e01b815260040160405180910390fd5b6002600155565b60025460ff1615610a325760405163d93c066560e01b815260040160405180910390fd5b5f6114878383611638565b9392505050565b6001600160a01b0383165f908152600460209081526040808320858452909152812054904282116114bf57426114c1565b815b90506114cd8382611f11565b6001600160a01b039095165f9081526004602090815260408083209683529590529390932093909355505050565b6115036118ab565b6002805460ff191690557f5db9ee0a495bf2e6ff9c91a7834c1ba4fdd244a5e8aa4e537bd38aeae4b073aa335b6040516001600160a01b03909116815260200160405180910390a1565b6040516001600160a01b0383811660248301526044820183905261098b91859182169063a9059cbb906064015b604051602081830303815290604052915060e01b6020820180516001600160e01b0383818316178352505050506118ce565b5f80546001600160a01b038381166001600160a01b0319831681178455604051919092169283917f8be0079c531659141344cd1fd0a4f28419497f9722a3daafe3b4186f6b6457e09190a35050565b611603611458565b6002805460ff191660011790557f62e78cea01bee320cd4e420270b5ea74000d11b0c9f74754ebdbfc544b05a2586115303390565b5f825f0361164757505f610b93565b6001600160a01b038083165f9081526005602052604090205416806116a35760405162461bcd60e51b81526020600482015260126024820152711c1c9a58d94819995959081b9bdd081cd95d60721b604482015260640161054f565b5f8190505f5f826001600160a01b031663feaf968c6040518163ffffffff1660e01b815260040160a060405180830381865afa1580156116e5573d5f5f3e3d5ffd5b505050506040513d601f19601f820116820180604052508101906117099190611f3d565b509350509250505f82136117575760405162461bcd60e51b81526020600482015260156024820152743130b21030b3b3b932b3b0ba37b91030b739bbb2b960591b604482015260640161054f565b6117646201518042611ea6565b811161179f5760405162461bcd60e51b815260206004820152600a6024820152691cdd185b19481999595960b21b604482015260640161054f565b5f836001600160a01b031663313ce5676040518163ffffffff1660e01b8152600401602060405180830381865afa1580156117dc573d5f5f3e3d5ffd5b505050506040513d601f19601f820116820180604052508101906118009190611f8b565b90505f61180c8861193a565b90505f61182461181c8385611fa6565b60ff166119b1565b61182e908b611fbf565b6002549091505f9061184790610100900460ff166119b1565b6118519087611fbf565b905061185d8183611fd6565b9b9a5050505050505050505050565b6040516001600160a01b0384811660248301528381166044830152606482018390526118a59186918216906323b872dd9060840161157a565b50505050565b60025460ff16610a3257604051638dfc202b60e01b815260040160405180910390fd5b5f5f60205f8451602086015f885af1806118ed576040513d5f823e3d81fd5b50505f513d91508115611904578060011415611911565b6001600160a01b0384163b155b156118a557604051635274afe760e01b81526001600160a01b038516600482015260240161054f565b5f6001600160a01b03821661195157506012919050565b816001600160a01b031663313ce5676040518163ffffffff1660e01b8152600401602060405180830381865afa15801561198d573d5f5f3e3d5ffd5b505050506040513d601f19601f82011682018060405250810190610b939190611f8b565b5f610b9382600a6120d8565b5f5f83601f8401126119cd575f5ffd5b50813567ffffffffffffffff8111156119e4575f5ffd5b6020830191508360208285010111156119fb575f5ffd5b9250929050565b5f5f5f5f5f60808688031215611a16575f5ffd5b85359450602086013567ffffffffffffffff811115611a33575f5ffd5b611a3f888289016119bd565b9699909850959660408101359660609091013595509350505050565b80356001600160a01b0381168114611a71575f5ffd5b919050565b5f5f5f60608486031215611a88575f5ffd5b611a9184611a5b565b95602085013595506040909401359392505050565b80358015158114611a71575f5ffd5b5f5f5f60608486031215611ac7575f5ffd5b611ad084611a5b565b9250611ade60208501611aa6565b9150611aec60408501611a5b565b90509250925092565b5f5f60408385031215611b06575f5ffd5b611b0f83611a5b565b946020939093013593505050565b5f60208284031215611b2d575f5ffd5b61148782611a5b565b5f5f5f60608486031215611b48575f5ffd5b611b5184611a5b565b925060208401359150611aec60408501611a5b565b5f60208284031215611b76575f5ffd5b5035919050565b5f5f60408385031215611b8e575f5ffd5b82359150611b9e60208401611a5b565b90509250929050565b608081525f8551806080840152806020880160a085015e5f60a0828501015260a0601f19601f830116840101915050846020830152836040830152821515606083015295945050505050565b60ff81168114610f1a575f5ffd5b5f60208284031215611c11575f5ffd5b813561148781611bf3565b5f5f5f5f5f60a08688031215611c30575f5ffd5b611c3986611a5b565b94506020860135935060408601359250611c5560608701611a5b565b949793965091946080013592915050565b5f5f5f5f5f5f60a08789031215611c7b575f5ffd5b86359550602087013567ffffffffffffffff811115611c98575f5ffd5b611ca489828a016119bd565b9096509450506040870135925060608701359150611cc460808801611aa6565b90509295509295509295565b634e487b7160e01b5f52604160045260245ffd5b600181811c90821680611cf857607f821691505b602082108103611d1657634e487b7160e01b5f52602260045260245ffd5b50919050565b601f82111561098b57805f5260205f20601f840160051c81016020851015611d415750805b601f840160051c820191505b81811015611169575f8155600101611d4d565b815167ffffffffffffffff811115611d7a57611d7a611cd0565b611d8e81611d888454611ce4565b84611d1c565b6020601f821160018114611dc0575f8315611da95750848201515b5f19600385901b1c1916600184901b178455611169565b5f84815260208120601f198516915b82811015611def5787850151825560209485019460019092019101611dcf565b5084821015611e0c57868401515f19600387901b60f8161c191681555b50505050600190811b01905550565b81835281816020850137505f828201602090810191909152601f909101601f19169091010190565b606081525f611e56606083018688611e1b565b6020830194909452506040015292915050565b6020808252600f908201526e706c616e206e6f742061637469766560881b604082015260600190565b634e487b7160e01b5f52601160045260245ffd5b81810381811115610b9357610b93611e92565b6001600160a01b0394909416845260208401929092526040830152606082015260800190565b608081525f611ef2608083018789611e1b565b6020830195909552506040810192909252151560609091015292915050565b80820180821115610b9357610b93611e92565b805169ffffffffffffffffffff81168114611a71575f5ffd5b5f5f5f5f5f60a08688031215611f51575f5ffd5b611f5a86611f24565b60208701516040880151606089015192975090955093509150611f7f60808701611f24565b90509295509295909350565b5f60208284031215611f9b575f5ffd5b815161148781611bf3565b60ff8181168382160190811115610b9357610b93611e92565b8082028115828204841417610b9357610b93611e92565b5f82611ff057634e487b7160e01b5f52601260045260245ffd5b500490565b6001815b60018411156120305780850481111561201457612014611e92565b600184161561202257908102905b60019390931c928002611ff9565b935093915050565b5f8261204657506001610b93565b8161205257505f610b93565b816001811461206857600281146120725761208e565b6001915050610b93565b60ff84111561208357612083611e92565b50506001821b610b93565b5060208310610133831016604e8410600b84101617156120b1575081810a610b93565b6120bd5f198484611ff5565b805f19048211156120d0576120d0611e92565b029392505050565b5f611487838361203856fea26469706673582212202c48b1df9399a00f6d9a1059aef957656bc5be6f380e3819680903654b4e0ebd64736f6c634300081e0033",
  "linkReferences": {},
  "deployedLinkReferences": {},
  "immutableReferences": {},
  "inputSourceName": "project/contracts/SubscriptionManager.sol",
  "buildInfoId": "solc-0_8_30-be63a6b40897ad9b7406a5e7a7145aec90667aaf"
}